:020000040800F2
:100000008006002089010008910100089301000882
:100010009501000897010008990100080000000000
:100020000000000000000000000000009B0100082C
:100030009D010008000000009F010008A1010008C8
:10004000A3010008A3010008A3010008A301000800
:10005000A3010008A3010008A3010008A3010008F0
:10006000A3010008A3010008A3010008A3010008E0
:10007000A3010008A3010008A3010008A3010008D0
:10008000A3010008A3010008A3010008A3010008C0
:10009000A3010008A3010008A3010008A3010008B0
:1000A000A3010008A3010008A3010008A3010008A0
:1000B000A3010008A3010008A3010008A301000890
:1000C000A3010008A3010008A3010008A301000880
:1000D000A3010008A3010008A3010008A301000870
:1000E000A3010008A3010008A301000800F002F822
:1000F00000F03AF80AA090E8000C82448344AAF188
:100100000107DA4501D100F02FF8AFF2090EBAE885
:100110000F0013F0010F18BFFB1A43F0010318473B
:100120005C0D00007C0D0000103A24BF78C878C137
:10013000FAD8520724BF30C830C144BF04680C60ED
:10014000704700000023002400250026103A28BF35
:1001500078C1FBD8520728BF30C148BF0B60704739
:100160001FB51FBD10B510BD00F0E5FA1146FFF731
:10017000F7FF00F072F900F003FB03B4FFF7F2FFA2
:1001800003BC00F007FB000009488047094800470E
:10019000FEE7FEE7FEE7FEE7FEE7FEE7FEE7FEE737
:1001A000FEE7FEE704480549054A064B7047000094
:1001B00031060008ED0000088000002080060020C5
:1001C000800200208002002042F6E061484300E007
:1001D00000BF0100A0F10100FAD1704700EB40011F
:1001E000880000E000BF0100A0F10100FAD17047D3
:1001F00000B503460120C5490860081F0068C0B269
:10020000091F08600846006840EA032008600220D1
:10021000091D0860FFF7E2FF0220BC49091D0860C4
:10022000FFF7D2FF00BD3EB5044600251CB93020C3
:10023000FFF7DEFF1BE00DE00A20B4FBF0F100FB4E
:100240001140303029466A1C55B20DF801000A20D1
:10025000B4FBF0F4002CEFD1681E45B205E01DF8A8
:100260000500FFF7C5FF681E45B2002DF7DA3EBD59
:100270002DE9F04704468946204600F02FFB07464B
:100280000022134600F09AFA04D22D20FFF7B0FFA7
:1002900084F00044204600F071FC05462846FFF734
:1002A000C2FF2E20FFF7A4FF002615E0284600F02D
:1002B00085FC8046214600F061FD0746944900F028
:1002C00091FC0446204600F059FC054605F130013A
:1002D000C8B2FFF78DFF761C4E45E7D3BDE8F08727
:1002E00000B5034601208949091D08608748001FA1
:1002F0000068C0B28549091F08600846006840EAE6
:10030000032008600220091D0860FFF767FF022034
:100310007E49091D0860FFF757FF00BD10B5044670
:1003200003E014F8010BFFF763FF20780028F8D1F1
:1003300010BD00207749086076482C38006840F0EE
:10034000010074492C39086000BF724834380068D5
:1003500010F0020FF9D06F481830006880B2704773
:1003600000B56D48806940F004006B49886108461B
:10037000806940F4007088616848006820F00F00D0
:10038000664908606448406820F44040624948601B
:100390000846406840F4004048605E482C380068D9
:1003A00040F001005B492C3908600220FFF70CFF88
:1003B00058482C38006840F0040056492C39086031
:1003C00000BF54482C38006810F0040FF9D1514890
:1003D0002438006840F007004E492439086000BD09
:1003E00000B54D48806940F008004B498861474896
:1003F0001038006820F0FF004449103908600846B2
:10040000006840F0220008604FF02230091D0860AB
:100410001020FFF7D9FE3020FFF762FF0620FFF71C
:10042000D3FE3020FFF75CFF0120FFF7CDFE302028
:10043000FFF756FF0120FFF7C7FE3820FFF750FFF8
:100440001020FFF74DFF0120FFF74AFF0620FFF7BE
:1004500047FF0F20FFF744FF00BDFFF7C1FFFFF785
:100460007FFF8020FFF73CFF2DA0FFF757FF4FF4E1
:10047000FA70FFF7A9FE30E00120FFF731FFFFF728
:1004800058FF2A4908800846008800F097FB054677
:10049000274900F0A7FB0446264900F0ADFA26499B
:1004A00008608020FFF71CFF24A0FFF737FFC02063
:1004B000FFF716FF25492048006800F093FB04462B
:1004C0000221FFF7D5FEDF20FFF792FE4320FFF762
:1004D0008FFE4FF47A70FFF777FECDE770B50646D2
:1004E0000C461EB904F18000C5B202E004F1C00060
:1004F000C5B22846FFF7F4FE70BD1549484300E039
:1005000000BF0100A0F10100FAD17047100C0140BA
:100510000000204134240140001002400008014046
:1005200041444320746573742000000000000020E3
:100530003333534000F07F4504000020526F6F6D4D
:100540002054656D70203A20000000000000C84271
:10055000001BB7000CB50020019000906B480068AC
:1005600040F480306949086000BF6848006800F4C2
:10057000003000900198401C0190009818B9019833
:10058000B0F5A06FF1D16148006810F4003F02D0CF
:100590000120009001E0002000900098012842D145
:1005A0005B48006840F01000594908600846006840
:1005B00020F0030008600846006840F00200086070
:1005C00052484068514948600846406848600846BB
:1005D000406840F4806048600846406820F47C1021
:1005E00048600846406840F4E810486008460068E3
:1005F00040F08070086000BF4448006810F0007F41
:10060000FAD04248406820F003004049486008465C
:10061000406840F00200486000BF3C48406800F07D
:100620000C000828F9D10CBD10B5FFF793FF10BDE1
:1006300010B53648006840F00100344908600846AB
:1006400040683449084031494860084600683249EA
:1006500008402E4908600846006820F480200860A1
:100660000846406820F4FE0048604FF41F00886090
:10067000FFF7DAFF4FF000602849086010BD10B5A1
:10068000002100200022214B5B6803F00C0121B106
:10069000042906D0082928D107E0214B214C2360EA
:1006A00027E01F4B1F4C236023E0184B5B6803F4CB
:1006B0007010164B5B6803F48032022303EB90400A
:1006C00022B9194B4343174C23600DE00F4B5B6875
:1006D00013F4003F04D0144B4343124C236003E057
:1006E0000F4B43430F4C236003E00D4B0D4C236035
:1006F00000BF00BF054B5B68C3F303130B4CE15C09
:10070000084B1B68CB40074C236010BD0010024013
:10071000002002400000FFF8FFFFF6FE08ED00E0B9
:1007200000127A000800002000093D000C000020A3
:10073000704770477047754600F028F8AE460500D0
:100740006946534620F00700854618B020B5FFF7EC
:1007500029FDBDE820404FF000064FF000074FF0A4
:1007600000084FF0000B21F00701AC46ACE8C009CF
:10077000ACE8C009ACE8C009ACE8C0098D467047D8
:100780000446AFF300802046FFF7F7FC00487047AF
:100790001C00002001491820ABBEFEE72600020025
:1007A0007047491058BFC1F140415B1058BFC3F1B9
:1007B00040438B42EFF300807047000051EA030C86
:1007C00017D41CF5801F58BFBCF5801F00F10680B0
:1007D000994218BF704708BF9042704707D711F57C
:1007E000801F58BF13F5801F19D499427047894262
:1007F00070471CF5801F08D5BCF5801FF7D58B42CC
:1008000018BF704708BF824270474FF4001C1CEBB2
:10081000410F38BF1CEB430F01D28B42704770B5BC
:1008200000F008F8922449004FF000514FF0805337
:10083000FFF7B7BF0EF1020E2EF0030E5EF8046B49
:10084000364205D4012A43EB030515F5001F12D8E3
:10085000012841EB010C1CF5001F0CD80ED14FEA0A
:10086000D17C15F5001F0CEB4C0C0CF1020C08BFF1
:100870004CEBD37C04E04FF0080C01E04FEAD37C52
:100880000CEB4C0526FA05F606F00706B6F1040C4B
:1008900006D20EEB860CBDE870404CF0010C6047B0
:1008A000DFE80CF0090B02024FF000414FF00000AE
:1008B000A1F5002170BD19461046012851EB010435
:1008C00018BFD4F5001484BF002001F0004170BDB2
:1008D0000808A0F500114FEA3101704743004FEAC4
:1008E000D30C4FEA3C0C43401FBF40070CF1605152
:1008F00013F0FE4F70471CF0006F03D100200CF086
:10090000004170470CF0004343EA507010B540EAD4
:10091000CC0000F0E8F900BF000000924FEA0001AF
:10092000FFF7D6BF4FF000414FF00000A1F50021C6
:100930007047000090EA010F48BF81F0004100F1CC
:100940002E82421A3CBF801A89184FEAD0524FF0CB
:100950007F4C1CEA410FA2EBD15318BF9CEA026FF7
:1009600000F03B804FF0004C4CEA00204CEA0121A3
:1009700021FA03FC10EB0C0C1ED202F1FF325FEAED
:100980001C2040EBC25038BF70471CF07F0F4FEA6D
:10099000400C18BFBCF17F4F38BF7047C3F1200334
:1009A000994008BF20F00100BCF17F4F38BF70476D
:1009B000A0F1C04000F0DDB94FEA3C00000A40EB76
:1009C000C25028BF1CF0FF0F4FEA400CE6D018BF02
:1009D000BCF17F4F38BF7047EAE79CEA026F05D051
:1009E00010EA5C0F08BF00F00040704710B500F03F
:1009F0007AF900BF64FBBE3E4FF47F0C1CEAD012B4
:100A00001EBF1CEAD11392EA0C0F93EA0C0F00F000
:100A1000858090EA010F48BF42F4807240F4000CD8
:100A200041F400002CF07F4120F07F4000B581426E
:100A3000A2EB03020FF2081CACEB504EC0F1000019
:100A40009EF800E04FEA4E0E00FB0EFC38BF490056
:100A50004FEA2C1C02F5FA020CFB0EF34FEACE1EF5
:100A60004FEA112C4FEAC1210EEB635E42EB2242AA
:100A70000EFB0CFC4FEA1C5300FB03114FEA112C38
:100A80004FEA01310EFB0CFC4FEADC4C00FB0C1171
:100A9000C14228BF09184CEB03335DF804EB10EB9F
:100AA000410143EBC250B2F57C0F38BF704729D5E6
:100AB00012F0F00F1CBF00F1C04000F00040704782
:100AC000008182838485868788898B8C8D8E8F9127
:100AD0009293959697999A9C9D9FA0A2A3A5A7A84B
:100AE000AAACAEB0B2B3B5B7B9BCBEC0C2C5C7C977
:100AF000CCCED1D4D7D9DCDFE2E6E9ECF0F3F7FADB
:100B0000FE0000004FEA400C0CF1807CBCF17E4FEF
:100B100028BF7047B0F1C04000F02BB990EA010F38
:100B20000CEAD11348BF42F48072624538BF634576
:100B300007D213F47F0F16D080EA010000F00040C6
:100B4000704710B500F0CFF8097EFC3E00F005B804
:100B500080EA010000F00040704780EA010000F0E8
:100B6000004000F006B912F47F0F04BF024870473E
:100B700080EA010000F0FDB80000C07FC10DD1F196
:100B80009E0206DB4FEA002343F0004323FA02F003
:100B90007047004207D54FEA4001B1F1FE4F02D243
:100BA0004FF00000704710B500F09DF84992248086
:100BB000002070476FEA200070470000B0FA80F311
:100BC00010FA03F2C3F19D030AD0D90501EB1220FC
:100BD000530638BF704700F1010008BF20F0010044
:100BE000704700004FF47F0C1CEAD0121EBF1CEAB5
:100BF000D11392EA0C0F93EA0C0F00F0478090EAB1
:100C0000010F48BF42F480724FF0004C4CEA0020C4
:100C10004CEA012102EB0302A0FB0113A2F5000242
:100C2000002918BF43F001035B0028BF4FEA3303DC
:100C300042EB22425FEA132C4CEBC2502EBFBCEBBE
:100C4000436FB2F57C0F70474FEA036CBCF1004F65
:100C500008BF20F00100B2F57C0F38BF70470BD5FC
:100C600082F0FF0212F5803FC8BF704700F1C0401C
:100C7000D8BF00F00040704700F5000C5FEA4C0C54
:100C800048BF7047B0F1C04000F073B890EA010F60
:100C90000CEAD11348BF42F48072624538BF634505
:100CA00004D280EA010000F00040704710B500F067
:100CB0001AF800BF8900013E00F007B800F009B83B
:100CC0005FEA410C5FEA1C6C08D080EA010000F08A
:100CD00050B85FEA400C5FEA1C6CF6D14FF0004060
:100CE000A0F5800070470EF1020E2EF0030E5EF8A4
:100CF000044B244204D44FEA4102B2F17F4F11D891
:100D00004FEA4003B3F17F4F0CD80ED14FEAD07CAD
:100D1000B2F17F4F0CEB4C0C0CF1020C08BF4CEB0A
:100D2000D17C04E04FF0080C01E04FEAD17C0CEBE1
:100D30004C0324FA03F404F00704B4F1040C06D2C3
:100D40000EEB840CBDE810404CF0010C6047DFE86E
:100D50000CF0070802024FF00040A0F5800010BD23
:100D60000846420018BFD2F1807288BF00F00040F0
:100D700010BDFF2141EAD050C005704780F000400F
:100D800090EA010F7FF5DDAD81F0004100F007B87A
:100D900090EA010F48BF81F000413FF5D2AD421A01
:100DA00004D882F00042A0EB020011444FEAD05276
:100DB0004FF07F4C1CEA410FA2EBD15318BF9CEAC5
:100DC000026F4AD04FF0004C4CEA00204CEA01215F
:100DD00021FA03FCB0EB0C0C0FD412F0FE0F36D04E
:100DE0005FEA4C001DD5001240EBC25038BF70477F
:100DF0001CF03F0F18BF70470BE0A2F101025FEA41
:100E00001C2040EBC25038BF70471CF07F0F18BF4A
:100E10007047C3F12003994014BF401E20F0010029
:100E2000704780084FEA122308BF7047B0FA80FC71
:100E3000A2EB0C02CCF1280C60FA0CF093EA122F12
:100E400004BF00EBC25070474FEAC3707047130AEB
:100E50005FEADC1008BF7047F6E79CEA026F04D037
:100E600010EA5C0F08BF0020704710B5FFF73BFF8A
:100E700040DFF63E81F00040704700009C0E000805
:100E8000000000201C00000028010008B80E000827
:100E90001C0000206406000044010008000000005F
:100EA0000000000000A24A04000000000000000052
:080EB000010203040607080912
:04000005080000ED02
:00000001FF
